{
  "_format": "hh-sol-artifact-1",
  "contractName": "NFT",
  "sourceName": "contracts/NFT.sol",
  "abi": [
    {
      "inputs": [
        {
          "internalType": "address",
          "name": "marketplaceAddress",
          "type": "address"
        }
      ],
      "stateMutability": "nonpayable",
      "type": "constructor"
    },
    {
      "anonymous": false,
      "inputs": [
        {
          "indexed": true,
          "internalType": "address",
          "name": "owner",
          "type": "address"
        },
        {
          "indexed": true,
          "internalType": "address",
          "name": "approved",
          "type": "address"
        },
        {
          "indexed": true,
          "internalType": "uint256",
          "name": "tokenId",
          "type": "uint256"
        }
      ],
      "name": "Approval",
      "type": "event"
    },
    {
      "anonymous": false,
      "inputs": [
        {
          "indexed": true,
          "internalType": "address",
          "name": "owner",
          "type": "address"
        },
        {
          "indexed": true,
          "internalType": "address",
          "name": "operator",
          "type": "address"
        },
        {
          "indexed": false,
          "internalType": "bool",
          "name": "approved",
          "type": "bool"
        }
      ],
      "name": "ApprovalForAll",
      "type": "event"
    },
    {
      "anonymous": false,
      "inputs": [
        {
          "indexed": true,
          "internalType": "address",
          "name": "from",
          "type": "address"
        },
        {
          "indexed": true,
          "internalType": "address",
          "name": "to",
          "type": "address"
        },
        {
          "indexed": true,
          "internalType": "uint256",
          "name": "tokenId",
          "type": "uint256"
        }
      ],
      "name": "Transfer",
      "type": "event"
    },
    {
      "inputs": [
        {
          "internalType": "address",
          "name": "to",
          "type": "address"
        },
        {
          "internalType": "uint256",
          "name": "tokenId",
          "type": "uint256"
        }
      ],
      "name": "approve",
      "outputs": [],
      "stateMutability": "nonpayable",
      "type": "function"
    },
    {
      "inputs": [],
      "name": "artist",
      "outputs": [
        {
          "internalType": "address",
          "name": "",
          "type": "address"
        }
      ],
      "stateMutability": "view",
      "type": "function"
    },
    {
      "inputs": [
        {
          "internalType": "address",
          "name": "owner",
          "type": "address"
        }
      ],
      "name": "balanceOf",
      "outputs": [
        {
          "internalType": "uint256",
          "name": "",
          "type": "uint256"
        }
      ],
      "stateMutability": "view",
      "type": "function"
    },
    {
      "inputs": [
        {
          "internalType": "string",
          "name": "tokenURI",
          "type": "string"
        }
      ],
      "name": "createToken",
      "outputs": [
        {
          "internalType": "uint256",
          "name": "",
          "type": "uint256"
        }
      ],
      "stateMutability": "nonpayable",
      "type": "function"
    },
    {
      "inputs": [
        {
          "internalType": "address",
          "name": "",
          "type": "address"
        }
      ],
      "name": "excludedList",
      "outputs": [
        {
          "internalType": "bool",
          "name": "",
          "type": "bool"
        }
      ],
      "stateMutability": "view",
      "type": "function"
    },
    {
      "inputs": [
        {
          "internalType": "uint256",
          "name": "tokenId",
          "type": "uint256"
        }
      ],
      "name": "getApproved",
      "outputs": [
        {
          "internalType": "address",
          "name": "",
          "type": "address"
        }
      ],
      "stateMutability": "view",
      "type": "function"
    },
    {
      "inputs": [
        {
          "internalType": "address",
          "name": "owner",
          "type": "address"
        },
        {
          "internalType": "address",
          "name": "operator",
          "type": "address"
        }
      ],
      "name": "isApprovedForAll",
      "outputs": [
        {
          "internalType": "bool",
          "name": "",
          "type": "bool"
        }
      ],
      "stateMutability": "view",
      "type": "function"
    },
    {
      "inputs": [],
      "name": "name",
      "outputs": [
        {
          "internalType": "string",
          "name": "",
          "type": "string"
        }
      ],
      "stateMutability": "view",
      "type": "function"
    },
    {
      "inputs": [
        {
          "internalType": "uint256",
          "name": "tokenId",
          "type": "uint256"
        }
      ],
      "name": "ownerOf",
      "outputs": [
        {
          "internalType": "address",
          "name": "",
          "type": "address"
        }
      ],
      "stateMutability": "view",
      "type": "function"
    },
    {
      "inputs": [
        {
          "internalType": "address",
          "name": "from",
          "type": "address"
        },
        {
          "internalType": "address",
          "name": "to",
          "type": "address"
        },
        {
          "internalType": "uint256",
          "name": "tokenId",
          "type": "uint256"
        }
      ],
      "name": "safeTransferFrom",
      "outputs": [],
      "stateMutability": "nonpayable",
      "type": "function"
    },
    {
      "inputs": [
        {
          "internalType": "address",
          "name": "from",
          "type": "address"
        },
        {
          "internalType": "address",
          "name": "to",
          "type": "address"
        },
        {
          "internalType": "uint256",
          "name": "tokenId",
          "type": "uint256"
        },
        {
          "internalType": "bytes",
          "name": "_data",
          "type": "bytes"
        }
      ],
      "name": "safeTransferFrom",
      "outputs": [],
      "stateMutability": "nonpayable",
      "type": "function"
    },
    {
      "inputs": [
        {
          "internalType": "address",
          "name": "operator",
          "type": "address"
        },
        {
          "internalType": "bool",
          "name": "approved",
          "type": "bool"
        }
      ],
      "name": "setApprovalForAll",
      "outputs": [],
      "stateMutability": "nonpayable",
      "type": "function"
    },
    {
      "inputs": [
        {
          "internalType": "bytes4",
          "name": "interfaceId",
          "type": "bytes4"
        }
      ],
      "name": "supportsInterface",
      "outputs": [
        {
          "internalType": "bool",
          "name": "",
          "type": "bool"
        }
      ],
      "stateMutability": "view",
      "type": "function"
    },
    {
      "inputs": [],
      "name": "symbol",
      "outputs": [
        {
          "internalType": "string",
          "name": "",
          "type": "string"
        }
      ],
      "stateMutability": "view",
      "type": "function"
    },
    {
      "inputs": [
        {
          "internalType": "uint256",
          "name": "tokenId",
          "type": "uint256"
        }
      ],
      "name": "tokenURI",
      "outputs": [
        {
          "internalType": "string",
          "name": "",
          "type": "string"
        }
      ],
      "stateMutability": "view",
      "type": "function"
    },
    {
      "inputs": [
        {
          "internalType": "address",
          "name": "from",
          "type": "address"
        },
        {
          "internalType": "address",
          "name": "to",
          "type": "address"
        },
        {
          "internalType": "uint256",
          "name": "tokenId",
          "type": "uint256"
        }
      ],
      "name": "transferFrom",
      "outputs": [],
      "stateMutability": "nonpayable",
      "type": "function"
    },
    {
      "inputs": [
        {
          "internalType": "address",
          "name": "from",
          "type": "address"
        },
        {
          "internalType": "address",
          "name": "to",
          "type": "address"
        },
        {
          "internalType": "uint256",
          "name": "tokenId",
          "type": "uint256"
        }
      ],
      "name": "transferToken",
      "outputs": [],
      "stateMutability": "nonpayable",
      "type": "function"
    },
    {
      "inputs": [],
      "name": "txFeeAmount",
      "outputs": [
        {
          "internalType": "uint256",
          "name": "",
          "type": "uint256"
        }
      ],
      "stateMutability": "view",
      "type": "function"
    },
    {
      "inputs": [],
      "name": "txFeeToken",
      "outputs": [
        {
          "internalType": "address",
          "name": "",
          "type": "address"
        }
      ],
      "stateMutability": "view",
      "type": "function"
    }
  ],
  "bytecode": "0x60806040523480156200001157600080fd5b50604051620019d8380380620019d883398101604081905262000034916200016e565b604080518082018252601081526f4d657461766572736520546f6b656e7360801b6020808301918252835180850190945260048452631351551560e21b9084015281519192916200008891600091620000c8565b5080516200009e906001906020840190620000c8565b5050600880546001600160a01b0319166001600160a01b03939093169290921790915550620001db565b828054620000d6906200019e565b90600052602060002090601f016020900481019282620000fa576000855562000145565b82601f106200011557805160ff191683800117855562000145565b8280016001018555821562000145579182015b828111156200014557825182559160200191906001019062000128565b506200015392915062000157565b5090565b5b8082111562000153576000815560010162000158565b60006020828403121562000180578081fd5b81516001600160a01b038116811462000197578182fd5b9392505050565b600181811c90821680620001b357607f821691505b60208210811415620001d557634e487b7160e01b600052602260045260246000fd5b50919050565b6117ed80620001eb6000396000f3fe608060405234801561001057600080fd5b50600436106101215760003560e01c80636352211e116100ad578063a22cb46511610071578063a22cb4651461026a578063b88d4fde1461027d578063c87b56dd14610290578063e985e9c5146102a3578063f5537ede146102df57600080fd5b80636352211e1461022057806370a082311461023357806377c567a7146102465780638fbceaad1461025957806395d89b411461026257600080fd5b806323b872dd116100f457806323b872dd146101a357806342842e0e146101b657806343bc1612146101c957806345576f94146101dc5780635600d2fa146101fd57600080fd5b806301ffc9a71461012657806306fdde031461014e578063081812fc14610163578063095ea7b31461018e575b600080fd5b61013961013436600461149f565b6102f2565b60405190151581526020015b60405180910390f35b610156610344565b60405161014591906115cd565b61017661017136600461151d565b6103d6565b6040516001600160a01b039091168152602001610145565b6101a161019c366004611476565b610463565b005b6101a16101b1366004611388565b610579565b6101a16101c4366004611388565b6105aa565b600954610176906001600160a01b031681565b6101ef6101ea3660046114d7565b6105c5565b604051908152602001610145565b61013961020b36600461133c565b600c6020526000908152604090205460ff1681565b61017661022e36600461151d565b61060d565b6101ef61024136600461133c565b610684565b600a54610176906001600160a01b031681565b6101ef600b5481565b61015661070b565b6101a161027836600461143c565b61071a565b6101a161028b3660046113c3565b610729565b61015661029e36600461151d565b610761565b6101396102b1366004611356565b6001600160a01b03918216600090815260056020908152604080832093909416825291909152205460ff1690565b6101a16102ed366004611388565b6108d8565b60006001600160e01b031982166380ac58cd60e01b148061032357506001600160e01b03198216635b5e139f60e01b145b8061033e57506301ffc9a760e01b6001600160e01b03198316145b92915050565b606060008054610353906116f2565b80601f016020809104026020016040519081016040528092919081815260200182805461037f906116f2565b80156103cc5780601f106103a1576101008083540402835291602001916103cc565b820191906000526020600020905b8154815290600101906020018083116103af57829003601f168201915b5050505050905090565b60006103e182610941565b6104475760405162461bcd60e51b815260206004820152602c60248201527f4552433732313a20617070726f76656420717565727920666f72206e6f6e657860448201526b34b9ba32b73a103a37b5b2b760a11b60648201526084015b60405180910390fd5b506000908152600460205260409020546001600160a01b031690565b600061046e8261060d565b9050806001600160a01b0316836001600160a01b031614156104dc5760405162461bcd60e51b815260206004820152602160248201527f4552433732313a20617070726f76616c20746f2063757272656e74206f776e656044820152603960f91b606482015260840161043e565b336001600160a01b03821614806104f857506104f881336102b1565b61056a5760405162461bcd60e51b815260206004820152603860248201527f4552433732313a20617070726f76652063616c6c6572206973206e6f74206f7760448201527f6e6572206e6f7220617070726f76656420666f7220616c6c0000000000000000606482015260840161043e565b610574838361095e565b505050565b61058333826109cc565b61059f5760405162461bcd60e51b815260040161043e90611632565b610574838383610ab2565b61057483838360405180602001604052806000815250610729565b60006105d5600780546001019055565b60006105e060075490565b90506105ec3382610c52565b6105f68184610d85565b60085461033e906001600160a01b0316600161071a565b6000818152600260205260408120546001600160a01b03168061033e5760405162461bcd60e51b815260206004820152602960248201527f4552433732313a206f776e657220717565727920666f72206e6f6e657869737460448201526832b73a103a37b5b2b760b91b606482015260840161043e565b60006001600160a01b0382166106ef5760405162461bcd60e51b815260206004820152602a60248201527f4552433732313a2062616c616e636520717565727920666f7220746865207a65604482015269726f206164647265737360b01b606482015260840161043e565b506001600160a01b031660009081526003602052604090205490565b606060018054610353906116f2565b610725338383610e10565b5050565b61073333836109cc565b61074f5760405162461bcd60e51b815260040161043e90611632565b61075b84848484610edf565b50505050565b606061076c82610941565b6107d25760405162461bcd60e51b815260206004820152603160248201527f45524337323155524953746f726167653a2055524920717565727920666f72206044820152703737b732bc34b9ba32b73a103a37b5b2b760791b606482015260840161043e565b600082815260066020526040812080546107eb906116f2565b80601f0160208091040260200160405190810160405280929190818152602001828054610817906116f2565b80156108645780601f1061083957610100808354040283529160200191610864565b820191906000526020600020905b81548152906001019060200180831161084757829003601f168201915b50505050509050600061088260408051602081019091526000815290565b9050805160001415610895575092915050565b8151156108c75780826040516020016108af929190611561565b60405160208183030381529060405292505050919050565b6108d084610f12565b949350505050565b826001600160a01b03166108eb8261060d565b6001600160a01b03161461059f5760405162461bcd60e51b815260206004820181905260248201527f46726f6d2061646472657373206d75737420626520746f6b656e206f776e6572604482015260640161043e565b6000908152600260205260409020546001600160a01b0316151590565b600081815260046020526040902080546001600160a01b0319166001600160a01b03841690811790915581906109938261060d565b6001600160a01b03167f8c5be1e5ebec7d5bd14f71427d1e84f3dd0314c0f7b2291e5b200ac8c7c3b92560405160405180910390a45050565b60006109d782610941565b610a385760405162461bcd60e51b815260206004820152602c60248201527f4552433732313a206f70657261746f7220717565727920666f72206e6f6e657860448201526b34b9ba32b73a103a37b5b2b760a11b606482015260840161043e565b6000610a438361060d565b9050806001600160a01b0316846001600160a01b03161480610a7e5750836001600160a01b0316610a73846103d6565b6001600160a01b0316145b806108d057506001600160a01b0380821660009081526005602090815260408083209388168352929052205460ff166108d0565b826001600160a01b0316610ac58261060d565b6001600160a01b031614610b2d5760405162461bcd60e51b815260206004820152602960248201527f4552433732313a207472616e73666572206f6620746f6b656e2074686174206960448201526839903737ba1037bbb760b91b606482015260840161043e565b6001600160a01b038216610b8f5760405162461bcd60e51b8152602060048201526024808201527f4552433732313a207472616e7366657220746f20746865207a65726f206164646044820152637265737360e01b606482015260840161043e565b610b9a60008261095e565b6001600160a01b0383166000908152600360205260408120805460019290610bc39084906116af565b90915550506001600160a01b0382166000908152600360205260408120805460019290610bf1908490611683565b909155505060008181526002602052604080822080546001600160a01b0319166001600160a01b0386811691821790925591518493918716917fddf252ad1be2c89b69c2b068fc378daa952ba7f163c4a11628f55a4df523b3ef91a4505050565b6001600160a01b038216610ca85760405162461bcd60e51b815260206004820181905260248201527f4552433732313a206d696e7420746f20746865207a65726f2061646472657373604482015260640161043e565b610cb181610941565b15610cfe5760405162461bcd60e51b815260206004820152601c60248201527f4552433732313a20746f6b656e20616c7265616479206d696e74656400000000604482015260640161043e565b6001600160a01b0382166000908152600360205260408120805460019290610d27908490611683565b909155505060008181526002602052604080822080546001600160a01b0319166001600160a01b03861690811790915590518392907fddf252ad1be2c89b69c2b068fc378daa952ba7f163c4a11628f55a4df523b3ef908290a45050565b610d8e82610941565b610df15760405162461bcd60e51b815260206004820152602e60248201527f45524337323155524953746f726167653a2055524920736574206f66206e6f6e60448201526d32bc34b9ba32b73a103a37b5b2b760911b606482015260840161043e565b6000828152600660209081526040909120825161057492840190611211565b816001600160a01b0316836001600160a01b03161415610e725760405162461bcd60e51b815260206004820152601960248201527f4552433732313a20617070726f766520746f2063616c6c657200000000000000604482015260640161043e565b6001600160a01b03838116600081815260056020908152604080832094871680845294825291829020805460ff191686151590811790915591519182527f17307eab39ab6107e8899845ad3d59bd9653f200f220920489ca2b5937696c31910160405180910390a3505050565b610eea848484610ab2565b610ef684848484610fea565b61075b5760405162461bcd60e51b815260040161043e906115e0565b6060610f1d82610941565b610f815760405162461bcd60e51b815260206004820152602f60248201527f4552433732314d657461646174613a2055524920717565727920666f72206e6f60448201526e3732bc34b9ba32b73a103a37b5b2b760891b606482015260840161043e565b6000610f9860408051602081019091526000815290565b90506000815111610fb85760405180602001604052806000815250610fe3565b80610fc2846110f7565b604051602001610fd3929190611561565b6040516020818303038152906040525b9392505050565b60006001600160a01b0384163b156110ec57604051630a85bd0160e11b81526001600160a01b0385169063150b7a029061102e903390899088908890600401611590565b602060405180830381600087803b15801561104857600080fd5b505af1925050508015611078575060408051601f3d908101601f19168201909252611075918101906114bb565b60015b6110d2573d8080156110a6576040519150601f19603f3d011682016040523d82523d6000602084013e6110ab565b606091505b5080516110ca5760405162461bcd60e51b815260040161043e906115e0565b805181602001fd5b6001600160e01b031916630a85bd0160e11b1490506108d0565b506001949350505050565b60608161111b5750506040805180820190915260018152600360fc1b602082015290565b8160005b8115611145578061112f8161172d565b915061113e9050600a8361169b565b915061111f565b60008167ffffffffffffffff81111561116e57634e487b7160e01b600052604160045260246000fd5b6040519080825280601f01601f191660200182016040528015611198576020820181803683370190505b5090505b84156108d0576111ad6001836116af565b91506111ba600a86611748565b6111c5906030611683565b60f81b8183815181106111e857634e487b7160e01b600052603260045260246000fd5b60200101906001600160f81b031916908160001a90535061120a600a8661169b565b945061119c565b82805461121d906116f2565b90600052602060002090601f01602090048101928261123f5760008555611285565b82601f1061125857805160ff1916838001178555611285565b82800160010185558215611285579182015b8281111561128557825182559160200191906001019061126a565b50611291929150611295565b5090565b5b808211156112915760008155600101611296565b600067ffffffffffffffff808411156112c5576112c5611788565b604051601f8501601f19908116603f011681019082821181831017156112ed576112ed611788565b8160405280935085815286868601111561130657600080fd5b858560208301376000602087830101525050509392505050565b80356001600160a01b038116811461133757600080fd5b919050565b60006020828403121561134d578081fd5b610fe382611320565b60008060408385031215611368578081fd5b61137183611320565b915061137f60208401611320565b90509250929050565b60008060006060848603121561139c578081fd5b6113a584611320565b92506113b360208501611320565b9150604084013590509250925092565b600080600080608085870312156113d8578081fd5b6113e185611320565b93506113ef60208601611320565b925060408501359150606085013567ffffffffffffffff811115611411578182fd5b8501601f81018713611421578182fd5b611430878235602084016112aa565b91505092959194509250565b6000806040838503121561144e578182fd5b61145783611320565b91506020830135801515811461146b578182fd5b809150509250929050565b60008060408385031215611488578182fd5b61149183611320565b946020939093013593505050565b6000602082840312156114b0578081fd5b8135610fe38161179e565b6000602082840312156114cc578081fd5b8151610fe38161179e565b6000602082840312156114e8578081fd5b813567ffffffffffffffff8111156114fe578182fd5b8201601f8101841361150e578182fd5b6108d0848235602084016112aa565b60006020828403121561152e578081fd5b5035919050565b6000815180845261154d8160208601602086016116c6565b601f01601f19169290920160200192915050565b600083516115738184602088016116c6565b8351908301906115878183602088016116c6565b01949350505050565b6001600160a01b03858116825284166020820152604081018390526080606082018190526000906115c390830184611535565b9695505050505050565b602081526000610fe36020830184611535565b60208082526032908201527f4552433732313a207472616e7366657220746f206e6f6e20455243373231526560408201527131b2b4bb32b91034b6b83632b6b2b73a32b960711b606082015260800190565b60208082526031908201527f4552433732313a207472616e736665722063616c6c6572206973206e6f74206f6040820152701ddb995c881b9bdc88185c1c1c9bdd9959607a1b606082015260800190565b600082198211156116965761169661175c565b500190565b6000826116aa576116aa611772565b500490565b6000828210156116c1576116c161175c565b500390565b60005b838110156116e15781810151838201526020016116c9565b8381111561075b5750506000910152565b600181811c9082168061170657607f821691505b6020821081141561172757634e487b7160e01b600052602260045260246000fd5b50919050565b60006000198214156117415761174161175c565b5060010190565b60008261175757611757611772565b500690565b634e487b7160e01b600052601160045260246000fd5b634e487b7160e01b600052601260045260246000fd5b634e487b7160e01b600052604160045260246000fd5b6001600160e01b0319811681146117b457600080fd5b5056fea2646970667358221220bb7313ccebb8d7ab77b553fa5b5e2f12ed225c660c552c1284bcc8d681c41a1464736f6c63430008040033",
  "linkReferences": {},
  "deployedLinkReferences": {}
}