{
  "_format": "hh-sol-artifact-1",
  "contractName": "NFT",
  "sourceName": "contracts/NFT.sol",
  "abi": [
    {
      "inputs": [
        {
          "internalType": "address",
          "name": "marketplaceAddress",
          "type": "address"
        }
      ],
      "stateMutability": "nonpayable",
      "type": "constructor"
    },
    {
      "anonymous": false,
      "inputs": [
        {
          "indexed": true,
          "internalType": "address",
          "name": "owner",
          "type": "address"
        },
        {
          "indexed": true,
          "internalType": "address",
          "name": "approved",
          "type": "address"
        },
        {
          "indexed": true,
          "internalType": "uint256",
          "name": "tokenId",
          "type": "uint256"
        }
      ],
      "name": "Approval",
      "type": "event"
    },
    {
      "anonymous": false,
      "inputs": [
        {
          "indexed": true,
          "internalType": "address",
          "name": "owner",
          "type": "address"
        },
        {
          "indexed": true,
          "internalType": "address",
          "name": "operator",
          "type": "address"
        },
        {
          "indexed": false,
          "internalType": "bool",
          "name": "approved",
          "type": "bool"
        }
      ],
      "name": "ApprovalForAll",
      "type": "event"
    },
    {
      "anonymous": false,
      "inputs": [
        {
          "indexed": true,
          "internalType": "address",
          "name": "from",
          "type": "address"
        },
        {
          "indexed": true,
          "internalType": "address",
          "name": "to",
          "type": "address"
        },
        {
          "indexed": true,
          "internalType": "uint256",
          "name": "tokenId",
          "type": "uint256"
        }
      ],
      "name": "Transfer",
      "type": "event"
    },
    {
      "inputs": [
        {
          "internalType": "address",
          "name": "to",
          "type": "address"
        },
        {
          "internalType": "uint256",
          "name": "tokenId",
          "type": "uint256"
        }
      ],
      "name": "approve",
      "outputs": [],
      "stateMutability": "nonpayable",
      "type": "function"
    },
    {
      "inputs": [
        {
          "internalType": "address",
          "name": "owner",
          "type": "address"
        }
      ],
      "name": "balanceOf",
      "outputs": [
        {
          "internalType": "uint256",
          "name": "",
          "type": "uint256"
        }
      ],
      "stateMutability": "view",
      "type": "function"
    },
    {
      "inputs": [
        {
          "internalType": "string",
          "name": "tokenURI",
          "type": "string"
        }
      ],
      "name": "createToken",
      "outputs": [
        {
          "internalType": "uint256",
          "name": "",
          "type": "uint256"
        }
      ],
      "stateMutability": "nonpayable",
      "type": "function"
    },
    {
      "inputs": [
        {
          "internalType": "uint256",
          "name": "tokenId",
          "type": "uint256"
        }
      ],
      "name": "getApproved",
      "outputs": [
        {
          "internalType": "address",
          "name": "",
          "type": "address"
        }
      ],
      "stateMutability": "view",
      "type": "function"
    },
    {
      "inputs": [
        {
          "internalType": "address",
          "name": "owner",
          "type": "address"
        },
        {
          "internalType": "address",
          "name": "operator",
          "type": "address"
        }
      ],
      "name": "isApprovedForAll",
      "outputs": [
        {
          "internalType": "bool",
          "name": "",
          "type": "bool"
        }
      ],
      "stateMutability": "view",
      "type": "function"
    },
    {
      "inputs": [],
      "name": "name",
      "outputs": [
        {
          "internalType": "string",
          "name": "",
          "type": "string"
        }
      ],
      "stateMutability": "view",
      "type": "function"
    },
    {
      "inputs": [
        {
          "internalType": "uint256",
          "name": "tokenId",
          "type": "uint256"
        }
      ],
      "name": "ownerOf",
      "outputs": [
        {
          "internalType": "address",
          "name": "",
          "type": "address"
        }
      ],
      "stateMutability": "view",
      "type": "function"
    },
    {
      "inputs": [
        {
          "internalType": "address",
          "name": "from",
          "type": "address"
        },
        {
          "internalType": "address",
          "name": "to",
          "type": "address"
        },
        {
          "internalType": "uint256",
          "name": "tokenId",
          "type": "uint256"
        }
      ],
      "name": "safeTransferFrom",
      "outputs": [],
      "stateMutability": "nonpayable",
      "type": "function"
    },
    {
      "inputs": [
        {
          "internalType": "address",
          "name": "from",
          "type": "address"
        },
        {
          "internalType": "address",
          "name": "to",
          "type": "address"
        },
        {
          "internalType": "uint256",
          "name": "tokenId",
          "type": "uint256"
        },
        {
          "internalType": "bytes",
          "name": "_data",
          "type": "bytes"
        }
      ],
      "name": "safeTransferFrom",
      "outputs": [],
      "stateMutability": "nonpayable",
      "type": "function"
    },
    {
      "inputs": [
        {
          "internalType": "address",
          "name": "operator",
          "type": "address"
        },
        {
          "internalType": "bool",
          "name": "approved",
          "type": "bool"
        }
      ],
      "name": "setApprovalForAll",
      "outputs": [],
      "stateMutability": "nonpayable",
      "type": "function"
    },
    {
      "inputs": [
        {
          "internalType": "bytes4",
          "name": "interfaceId",
          "type": "bytes4"
        }
      ],
      "name": "supportsInterface",
      "outputs": [
        {
          "internalType": "bool",
          "name": "",
          "type": "bool"
        }
      ],
      "stateMutability": "view",
      "type": "function"
    },
    {
      "inputs": [],
      "name": "symbol",
      "outputs": [
        {
          "internalType": "string",
          "name": "",
          "type": "string"
        }
      ],
      "stateMutability": "view",
      "type": "function"
    },
    {
      "inputs": [
        {
          "internalType": "uint256",
          "name": "tokenId",
          "type": "uint256"
        }
      ],
      "name": "tokenURI",
      "outputs": [
        {
          "internalType": "string",
          "name": "",
          "type": "string"
        }
      ],
      "stateMutability": "view",
      "type": "function"
    },
    {
      "inputs": [
        {
          "internalType": "address",
          "name": "from",
          "type": "address"
        },
        {
          "internalType": "address",
          "name": "to",
          "type": "address"
        },
        {
          "internalType": "uint256",
          "name": "tokenId",
          "type": "uint256"
        }
      ],
      "name": "transferFrom",
      "outputs": [],
      "stateMutability": "nonpayable",
      "type": "function"
    },
    {
      "inputs": [
        {
          "internalType": "address",
          "name": "from",
          "type": "address"
        },
        {
          "internalType": "address",
          "name": "to",
          "type": "address"
        },
        {
          "internalType": "uint256",
          "name": "tokenId",
          "type": "uint256"
        }
      ],
      "name": "transferToken",
      "outputs": [],
      "stateMutability": "nonpayable",
      "type": "function"
    }
  ],
  "bytecode": "0x60806040523480156200001157600080fd5b506040516200195a3803806200195a83398101604081905262000034916200016e565b604080518082018252601081526f4d657461766572736520546f6b656e7360801b6020808301918252835180850190945260048452631351551560e21b9084015281519192916200008891600091620000c8565b5080516200009e906001906020840190620000c8565b5050600880546001600160a01b0319166001600160a01b03939093169290921790915550620001db565b828054620000d6906200019e565b90600052602060002090601f016020900481019282620000fa576000855562000145565b82601f106200011557805160ff191683800117855562000145565b8280016001018555821562000145579182015b828111156200014557825182559160200191906001019062000128565b506200015392915062000157565b5090565b5b8082111562000153576000815560010162000158565b60006020828403121562000180578081fd5b81516001600160a01b038116811462000197578182fd5b9392505050565b600181811c90821680620001b357607f821691505b60208210811415620001d557634e487b7160e01b600052602260045260246000fd5b50919050565b61176f80620001eb6000396000f3fe608060405234801561001057600080fd5b50600436106100f55760003560e01c80636352211e11610097578063b88d4fde11610066578063b88d4fde146101ff578063c87b56dd14610212578063e985e9c514610225578063f5537ede1461026157600080fd5b80636352211e146101be57806370a08231146101d157806395d89b41146101e4578063a22cb465146101ec57600080fd5b8063095ea7b3116100d3578063095ea7b31461016257806323b872dd1461017757806342842e0e1461018a57806345576f941461019d57600080fd5b806301ffc9a7146100fa57806306fdde0314610122578063081812fc14610137575b600080fd5b61010d610108366004611421565b610274565b60405190151581526020015b60405180910390f35b61012a6102c6565b604051610119919061154f565b61014a61014536600461149f565b610358565b6040516001600160a01b039091168152602001610119565b6101756101703660046113f8565b6103e5565b005b61017561018536600461130a565b6104fb565b61017561019836600461130a565b61052c565b6101b06101ab366004611459565b610547565b604051908152602001610119565b61014a6101cc36600461149f565b61058f565b6101b06101df3660046112be565b610606565b61012a61068d565b6101756101fa3660046113be565b61069c565b61017561020d366004611345565b6106ab565b61012a61022036600461149f565b6106e3565b61010d6102333660046112d8565b6001600160a01b03918216600090815260056020908152604080832093909416825291909152205460ff1690565b61017561026f36600461130a565b61085a565b60006001600160e01b031982166380ac58cd60e01b14806102a557506001600160e01b03198216635b5e139f60e01b145b806102c057506301ffc9a760e01b6001600160e01b03198316145b92915050565b6060600080546102d590611674565b80601f016020809104026020016040519081016040528092919081815260200182805461030190611674565b801561034e5780601f106103235761010080835404028352916020019161034e565b820191906000526020600020905b81548152906001019060200180831161033157829003601f168201915b5050505050905090565b6000610363826108c3565b6103c95760405162461bcd60e51b815260206004820152602c60248201527f4552433732313a20617070726f76656420717565727920666f72206e6f6e657860448201526b34b9ba32b73a103a37b5b2b760a11b60648201526084015b60405180910390fd5b506000908152600460205260409020546001600160a01b031690565b60006103f08261058f565b9050806001600160a01b0316836001600160a01b0316141561045e5760405162461bcd60e51b815260206004820152602160248201527f4552433732313a20617070726f76616c20746f2063757272656e74206f776e656044820152603960f91b60648201526084016103c0565b336001600160a01b038216148061047a575061047a8133610233565b6104ec5760405162461bcd60e51b815260206004820152603860248201527f4552433732313a20617070726f76652063616c6c6572206973206e6f74206f7760448201527f6e6572206e6f7220617070726f76656420666f7220616c6c000000000000000060648201526084016103c0565b6104f683836108e0565b505050565b610505338261094e565b6105215760405162461bcd60e51b81526004016103c0906115b4565b6104f6838383610a34565b6104f6838383604051806020016040528060008152506106ab565b6000610557600780546001019055565b600061056260075490565b905061056e3382610bd4565b6105788184610d07565b6008546102c0906001600160a01b0316600161069c565b6000818152600260205260408120546001600160a01b0316806102c05760405162461bcd60e51b815260206004820152602960248201527f4552433732313a206f776e657220717565727920666f72206e6f6e657869737460448201526832b73a103a37b5b2b760b91b60648201526084016103c0565b60006001600160a01b0382166106715760405162461bcd60e51b815260206004820152602a60248201527f4552433732313a2062616c616e636520717565727920666f7220746865207a65604482015269726f206164647265737360b01b60648201526084016103c0565b506001600160a01b031660009081526003602052604090205490565b6060600180546102d590611674565b6106a7338383610d92565b5050565b6106b5338361094e565b6106d15760405162461bcd60e51b81526004016103c0906115b4565b6106dd84848484610e61565b50505050565b60606106ee826108c3565b6107545760405162461bcd60e51b815260206004820152603160248201527f45524337323155524953746f726167653a2055524920717565727920666f72206044820152703737b732bc34b9ba32b73a103a37b5b2b760791b60648201526084016103c0565b6000828152600660205260408120805461076d90611674565b80601f016020809104026020016040519081016040528092919081815260200182805461079990611674565b80156107e65780601f106107bb576101008083540402835291602001916107e6565b820191906000526020600020905b8154815290600101906020018083116107c957829003601f168201915b50505050509050600061080460408051602081019091526000815290565b9050805160001415610817575092915050565b8151156108495780826040516020016108319291906114e3565b60405160208183030381529060405292505050919050565b61085284610e94565b949350505050565b826001600160a01b031661086d8261058f565b6001600160a01b0316146105215760405162461bcd60e51b815260206004820181905260248201527f46726f6d2061646472657373206d75737420626520746f6b656e206f776e657260448201526064016103c0565b6000908152600260205260409020546001600160a01b0316151590565b600081815260046020526040902080546001600160a01b0319166001600160a01b03841690811790915581906109158261058f565b6001600160a01b03167f8c5be1e5ebec7d5bd14f71427d1e84f3dd0314c0f7b2291e5b200ac8c7c3b92560405160405180910390a45050565b6000610959826108c3565b6109ba5760405162461bcd60e51b815260206004820152602c60248201527f4552433732313a206f70657261746f7220717565727920666f72206e6f6e657860448201526b34b9ba32b73a103a37b5b2b760a11b60648201526084016103c0565b60006109c58361058f565b9050806001600160a01b0316846001600160a01b03161480610a005750836001600160a01b03166109f584610358565b6001600160a01b0316145b8061085257506001600160a01b0380821660009081526005602090815260408083209388168352929052205460ff16610852565b826001600160a01b0316610a478261058f565b6001600160a01b031614610aaf5760405162461bcd60e51b815260206004820152602960248201527f4552433732313a207472616e73666572206f6620746f6b656e2074686174206960448201526839903737ba1037bbb760b91b60648201526084016103c0565b6001600160a01b038216610b115760405162461bcd60e51b8152602060048201526024808201527f4552433732313a207472616e7366657220746f20746865207a65726f206164646044820152637265737360e01b60648201526084016103c0565b610b1c6000826108e0565b6001600160a01b0383166000908152600360205260408120805460019290610b45908490611631565b90915550506001600160a01b0382166000908152600360205260408120805460019290610b73908490611605565b909155505060008181526002602052604080822080546001600160a01b0319166001600160a01b0386811691821790925591518493918716917fddf252ad1be2c89b69c2b068fc378daa952ba7f163c4a11628f55a4df523b3ef91a4505050565b6001600160a01b038216610c2a5760405162461bcd60e51b815260206004820181905260248201527f4552433732313a206d696e7420746f20746865207a65726f206164647265737360448201526064016103c0565b610c33816108c3565b15610c805760405162461bcd60e51b815260206004820152601c60248201527f4552433732313a20746f6b656e20616c7265616479206d696e7465640000000060448201526064016103c0565b6001600160a01b0382166000908152600360205260408120805460019290610ca9908490611605565b909155505060008181526002602052604080822080546001600160a01b0319166001600160a01b03861690811790915590518392907fddf252ad1be2c89b69c2b068fc378daa952ba7f163c4a11628f55a4df523b3ef908290a45050565b610d10826108c3565b610d735760405162461bcd60e51b815260206004820152602e60248201527f45524337323155524953746f726167653a2055524920736574206f66206e6f6e60448201526d32bc34b9ba32b73a103a37b5b2b760911b60648201526084016103c0565b600082815260066020908152604090912082516104f692840190611193565b816001600160a01b0316836001600160a01b03161415610df45760405162461bcd60e51b815260206004820152601960248201527f4552433732313a20617070726f766520746f2063616c6c65720000000000000060448201526064016103c0565b6001600160a01b03838116600081815260056020908152604080832094871680845294825291829020805460ff191686151590811790915591519182527f17307eab39ab6107e8899845ad3d59bd9653f200f220920489ca2b5937696c31910160405180910390a3505050565b610e6c848484610a34565b610e7884848484610f6c565b6106dd5760405162461bcd60e51b81526004016103c090611562565b6060610e9f826108c3565b610f035760405162461bcd60e51b815260206004820152602f60248201527f4552433732314d657461646174613a2055524920717565727920666f72206e6f60448201526e3732bc34b9ba32b73a103a37b5b2b760891b60648201526084016103c0565b6000610f1a60408051602081019091526000815290565b90506000815111610f3a5760405180602001604052806000815250610f65565b80610f4484611079565b604051602001610f559291906114e3565b6040516020818303038152906040525b9392505050565b60006001600160a01b0384163b1561106e57604051630a85bd0160e11b81526001600160a01b0385169063150b7a0290610fb0903390899088908890600401611512565b602060405180830381600087803b158015610fca57600080fd5b505af1925050508015610ffa575060408051601f3d908101601f19168201909252610ff79181019061143d565b60015b611054573d808015611028576040519150601f19603f3d011682016040523d82523d6000602084013e61102d565b606091505b50805161104c5760405162461bcd60e51b81526004016103c090611562565b805181602001fd5b6001600160e01b031916630a85bd0160e11b149050610852565b506001949350505050565b60608161109d5750506040805180820190915260018152600360fc1b602082015290565b8160005b81156110c757806110b1816116af565b91506110c09050600a8361161d565b91506110a1565b60008167ffffffffffffffff8111156110f057634e487b7160e01b600052604160045260246000fd5b6040519080825280601f01601f19166020018201604052801561111a576020820181803683370190505b5090505b84156108525761112f600183611631565b915061113c600a866116ca565b611147906030611605565b60f81b81838151811061116a57634e487b7160e01b600052603260045260246000fd5b60200101906001600160f81b031916908160001a90535061118c600a8661161d565b945061111e565b82805461119f90611674565b90600052602060002090601f0160209004810192826111c15760008555611207565b82601f106111da57805160ff1916838001178555611207565b82800160010185558215611207579182015b828111156112075782518255916020019190600101906111ec565b50611213929150611217565b5090565b5b808211156112135760008155600101611218565b600067ffffffffffffffff808411156112475761124761170a565b604051601f8501601f19908116603f0116810190828211818310171561126f5761126f61170a565b8160405280935085815286868601111561128857600080fd5b858560208301376000602087830101525050509392505050565b80356001600160a01b03811681146112b957600080fd5b919050565b6000602082840312156112cf578081fd5b610f65826112a2565b600080604083850312156112ea578081fd5b6112f3836112a2565b9150611301602084016112a2565b90509250929050565b60008060006060848603121561131e578081fd5b611327846112a2565b9250611335602085016112a2565b9150604084013590509250925092565b6000806000806080858703121561135a578081fd5b611363856112a2565b9350611371602086016112a2565b925060408501359150606085013567ffffffffffffffff811115611393578182fd5b8501601f810187136113a3578182fd5b6113b28782356020840161122c565b91505092959194509250565b600080604083850312156113d0578182fd5b6113d9836112a2565b9150602083013580151581146113ed578182fd5b809150509250929050565b6000806040838503121561140a578182fd5b611413836112a2565b946020939093013593505050565b600060208284031215611432578081fd5b8135610f6581611720565b60006020828403121561144e578081fd5b8151610f6581611720565b60006020828403121561146a578081fd5b813567ffffffffffffffff811115611480578182fd5b8201601f81018413611490578182fd5b6108528482356020840161122c565b6000602082840312156114b0578081fd5b5035919050565b600081518084526114cf816020860160208601611648565b601f01601f19169290920160200192915050565b600083516114f5818460208801611648565b835190830190611509818360208801611648565b01949350505050565b6001600160a01b0385811682528416602082015260408101839052608060608201819052600090611545908301846114b7565b9695505050505050565b602081526000610f6560208301846114b7565b60208082526032908201527f4552433732313a207472616e7366657220746f206e6f6e20455243373231526560408201527131b2b4bb32b91034b6b83632b6b2b73a32b960711b606082015260800190565b60208082526031908201527f4552433732313a207472616e736665722063616c6c6572206973206e6f74206f6040820152701ddb995c881b9bdc88185c1c1c9bdd9959607a1b606082015260800190565b60008219821115611618576116186116de565b500190565b60008261162c5761162c6116f4565b500490565b600082821015611643576116436116de565b500390565b60005b8381101561166357818101518382015260200161164b565b838111156106dd5750506000910152565b600181811c9082168061168857607f821691505b602082108114156116a957634e487b7160e01b600052602260045260246000fd5b50919050565b60006000198214156116c3576116c36116de565b5060010190565b6000826116d9576116d96116f4565b500690565b634e487b7160e01b600052601160045260246000fd5b634e487b7160e01b600052601260045260246000fd5b634e487b7160e01b600052604160045260246000fd5b6001600160e01b03198116811461173657600080fd5b5056fea26469706673582212205f5615bf982e648ac0518f350164290147b76eae662c49637d40d8a161a1204064736f6c63430008040033",
  "linkReferences": {},
  "deployedLinkReferences": {}
}