{
  "_format": "hh-sol-artifact-1",
  "contractName": "NFTMarket",
  "sourceName": "contracts/Market.sol",
  "abi": [
    {
      "inputs": [],
      "stateMutability": "nonpayable",
      "type": "constructor"
    },
    {
      "anonymous": false,
      "inputs": [
        {
          "indexed": true,
          "internalType": "uint256",
          "name": "itemId",
          "type": "uint256"
        },
        {
          "indexed": true,
          "internalType": "address",
          "name": "nftContract",
          "type": "address"
        },
        {
          "indexed": true,
          "internalType": "uint256",
          "name": "tokenId",
          "type": "uint256"
        },
        {
          "indexed": false,
          "internalType": "address",
          "name": "seller",
          "type": "address"
        },
        {
          "indexed": false,
          "internalType": "address",
          "name": "owner",
          "type": "address"
        },
        {
          "indexed": false,
          "internalType": "uint256",
          "name": "price",
          "type": "uint256"
        },
        {
          "indexed": false,
          "internalType": "bool",
          "name": "sold",
          "type": "bool"
        }
      ],
      "name": "MarketItemCreated",
      "type": "event"
    },
    {
      "anonymous": false,
      "inputs": [
        {
          "indexed": true,
          "internalType": "uint256",
          "name": "itemId",
          "type": "uint256"
        }
      ],
      "name": "ProductListed",
      "type": "event"
    },
    {
      "inputs": [
        {
          "internalType": "address",
          "name": "nftContract",
          "type": "address"
        },
        {
          "internalType": "uint256",
          "name": "tokenId",
          "type": "uint256"
        },
        {
          "internalType": "uint256",
          "name": "price",
          "type": "uint256"
        }
      ],
      "name": "createMarketItem",
      "outputs": [],
      "stateMutability": "payable",
      "type": "function"
    },
    {
      "inputs": [
        {
          "internalType": "address",
          "name": "nftContract",
          "type": "address"
        },
        {
          "internalType": "uint256",
          "name": "itemId",
          "type": "uint256"
        }
      ],
      "name": "createMarketSale",
      "outputs": [],
      "stateMutability": "payable",
      "type": "function"
    },
    {
      "inputs": [],
      "name": "fetchItemsCreated",
      "outputs": [
        {
          "components": [
            {
              "internalType": "uint256",
              "name": "itemId",
              "type": "uint256"
            },
            {
              "internalType": "address",
              "name": "nftContract",
              "type": "address"
            },
            {
              "internalType": "uint256",
              "name": "tokenId",
              "type": "uint256"
            },
            {
              "internalType": "address payable",
              "name": "seller",
              "type": "address"
            },
            {
              "internalType": "address payable",
              "name": "owner",
              "type": "address"
            },
            {
              "internalType": "uint256",
              "name": "price",
              "type": "uint256"
            },
            {
              "internalType": "bool",
              "name": "sold",
              "type": "bool"
            }
          ],
          "internalType": "struct NFTMarket.MarketItem[]",
          "name": "",
          "type": "tuple[]"
        }
      ],
      "stateMutability": "view",
      "type": "function"
    },
    {
      "inputs": [],
      "name": "fetchMarketItems",
      "outputs": [
        {
          "components": [
            {
              "internalType": "uint256",
              "name": "itemId",
              "type": "uint256"
            },
            {
              "internalType": "address",
              "name": "nftContract",
              "type": "address"
            },
            {
              "internalType": "uint256",
              "name": "tokenId",
              "type": "uint256"
            },
            {
              "internalType": "address payable",
              "name": "seller",
              "type": "address"
            },
            {
              "internalType": "address payable",
              "name": "owner",
              "type": "address"
            },
            {
              "internalType": "uint256",
              "name": "price",
              "type": "uint256"
            },
            {
              "internalType": "bool",
              "name": "sold",
              "type": "bool"
            }
          ],
          "internalType": "struct NFTMarket.MarketItem[]",
          "name": "",
          "type": "tuple[]"
        }
      ],
      "stateMutability": "view",
      "type": "function"
    },
    {
      "inputs": [],
      "name": "fetchMyNFTs",
      "outputs": [
        {
          "components": [
            {
              "internalType": "uint256",
              "name": "itemId",
              "type": "uint256"
            },
            {
              "internalType": "address",
              "name": "nftContract",
              "type": "address"
            },
            {
              "internalType": "uint256",
              "name": "tokenId",
              "type": "uint256"
            },
            {
              "internalType": "address payable",
              "name": "seller",
              "type": "address"
            },
            {
              "internalType": "address payable",
              "name": "owner",
              "type": "address"
            },
            {
              "internalType": "uint256",
              "name": "price",
              "type": "uint256"
            },
            {
              "internalType": "bool",
              "name": "sold",
              "type": "bool"
            }
          ],
          "internalType": "struct NFTMarket.MarketItem[]",
          "name": "",
          "type": "tuple[]"
        }
      ],
      "stateMutability": "view",
      "type": "function"
    },
    {
      "inputs": [],
      "name": "getListingPrice",
      "outputs": [
        {
          "internalType": "uint256",
          "name": "",
          "type": "uint256"
        }
      ],
      "stateMutability": "view",
      "type": "function"
    },
    {
      "inputs": [
        {
          "internalType": "address",
          "name": "nftContract",
          "type": "address"
        },
        {
          "internalType": "uint256",
          "name": "itemId",
          "type": "uint256"
        },
        {
          "internalType": "uint256",
          "name": "newPrice",
          "type": "uint256"
        }
      ],
      "name": "putItemToResell",
      "outputs": [],
      "stateMutability": "payable",
      "type": "function"
    }
  ],
  "bytecode": "0x60806040526658d15e1762800060045534801561001b57600080fd5b506001600055600380546001600160a01b03191633179055610f8b806100426000396000f3fe6080604052600436106100705760003560e01c806358271fff1161004e57806358271fff146100d357806358eb2df5146100e8578063c23b139e146100fb578063f064c32e1461010e57600080fd5b80630f08efe01461007557806312e85585146100a0578063202e3740146100be575b600080fd5b34801561008157600080fd5b5061008a610123565b6040516100979190610de6565b60405180910390f35b3480156100ac57600080fd5b50600454604051908152602001610097565b3480156100ca57600080fd5b5061008a6102cb565b6100e66100e1366004610db4565b6104b1565b005b6100e66100f6366004610db4565b6106db565b6100e6610109366004610d8b565b61090a565b34801561011a57600080fd5b5061008a610af6565b6060600061013060015490565b9050600061013d60025490565b60015461014a9190610f0d565b90506000808267ffffffffffffffff81111561017657634e487b7160e01b600052604160045260246000fd5b6040519080825280602002602001820160405280156101af57816020015b61019c610d33565b8152602001906001900390816101945790505b50905060005b848110156102c25760006005816101cd846001610ef5565b81526020810191909152604001600020600401546001600160a01b031614156102b05760006101fd826001610ef5565b600081815260056020818152604092839020835160e0810185528154815260018201546001600160a01b0390811693820193909352600282015494810194909452600381015482166060850152600481015490911660808401529081015460a0830152600681015460ff16151560c083015285519293509185908790811061029557634e487b7160e01b600052603260045260246000fd5b60209081029190910101526102ab600186610ef5565b945050505b806102ba81610f24565b9150506101b5565b50949350505050565b606060006102d860015490565b905060008060005b8381101561033b5733600560006102f8846001610ef5565b81526020810191909152604001600020600401546001600160a01b0316141561032957610326600184610ef5565b92505b8061033381610f24565b9150506102e0565b5060008267ffffffffffffffff81111561036557634e487b7160e01b600052604160045260246000fd5b60405190808252806020026020018201604052801561039e57816020015b61038b610d33565b8152602001906001900390816103835790505b50905060005b848110156102c25733600560006103bc846001610ef5565b81526020810191909152604001600020600401546001600160a01b0316141561049f5760006103ec826001610ef5565b600081815260056020818152604092839020835160e0810185528154815260018201546001600160a01b0390811693820193909352600282015494810194909452600381015482166060850152600481015490911660808401529081015460a0830152600681015460ff16151560c083015285519293509185908790811061048457634e487b7160e01b600052603260045260246000fd5b602090810291909101015261049a600186610ef5565b945050505b806104a981610f24565b9150506103a4565b600260005414156104dd5760405162461bcd60e51b81526004016104d490610ebe565b60405180910390fd5b600260009081558281526005602052604090206004015482906001600160a01b0316331461055e5760405162461bcd60e51b815260206004820152602860248201527f4f6e6c792070726f64756374206f776e65722063616e20646f2074686973206f6044820152673832b930ba34b7b760c11b60648201526084016104d4565b600083815260056020526040902060020154826105bd5760405162461bcd60e51b815260206004820152601c60248201527f5072696365206d757374206265206174206c656173742031207765690000000060448201526064016104d4565b60045434146105de5760405162461bcd60e51b81526004016104d490610e7a565b604051637aa9bf6f60e11b81523360048201523060248201526044810182905285906001600160a01b0382169063f5537ede90606401600060405180830381600087803b15801561062e57600080fd5b505af1158015610642573d6000803e3d6000fd5b50505060008681526005602081905260409091206004810180546001600160a01b03198082169092556003830180549092166001600160a01b03909116908117909155918101879055600601805460ff1916905590506106a26002610cdc565b60405186907f221866c21613d6f0d77d42f9309b122a25deed1bc186cff9c2f1ddafc52c34f690600090a2505060016000555050505050565b600260005414156106fe5760405162461bcd60e51b81526004016104d490610ebe565b6002600055806107505760405162461bcd60e51b815260206004820152601c60248201527f5072696365206d757374206265206174206c656173742031207765690000000060448201526064016104d4565b60045434146107715760405162461bcd60e51b81526004016104d490610e7a565b61077f600180546001019055565b600061078a60015490565b6040805160e0810182528281526001600160a01b0387811660208084018281528486018a8152336060870181815260006080890181815260a08a018e815260c08b018381528d8452600598899052928c90209a518b55955160018b018054918b166001600160a01b0319928316179055945160028b0155915160038a018054918a1691861691909117905590516004808a01805492909916919094161790965591519286019290925592516006909401805494151560ff199095169490941790935592516323b872dd60e01b81529182015230602482015260448101869052919250906323b872dd90606401600060405180830381600087803b15801561089057600080fd5b505af11580156108a4573d6000803e3d6000fd5b505060408051338152600060208201819052818301879052606082015290518693506001600160a01b038816925084917f045dfa01dcba2b36aba1d3dc4a874f4b0c5d2fbeb8d2c4b34a7d88c8d8f929d1919081900360800190a4505060016000555050565b6002600054141561092d5760405162461bcd60e51b81526004016104d490610ebe565b60026000818155828152600560208190526040909120908101549101543482146109c1576040805162461bcd60e51b81526020600482015260248101919091527f506c65617365207375626d6974207468652061736b696e67207072696365206960448201527f6e206f7264657220746f20636f6d706c6574652074686520707572636861736560648201526084016104d4565b6000838152600560205260408082206003015490516001600160a01b03909116913480156108fc02929091818181858888f19350505050158015610a09573d6000803e3d6000fd5b506040516323b872dd60e01b8152306004820152336024820152604481018290526001600160a01b038516906323b872dd90606401600060405180830381600087803b158015610a5857600080fd5b505af1158015610a6c573d6000803e3d6000fd5b50505060008481526005602052604090206004810180546001600160a01b03191633179055600601805460ff1916600117905550610aae600280546001019055565b6003546004546040516001600160a01b039092169181156108fc0291906000818181858888f19350505050158015610aea573d6000803e3d6000fd5b50506001600055505050565b60606000610b0360015490565b905060008060005b83811015610b66573360056000610b23846001610ef5565b81526020810191909152604001600020600301546001600160a01b03161415610b5457610b51600184610ef5565b92505b80610b5e81610f24565b915050610b0b565b5060008267ffffffffffffffff811115610b9057634e487b7160e01b600052604160045260246000fd5b604051908082528060200260200182016040528015610bc957816020015b610bb6610d33565b815260200190600190039081610bae5790505b50905060005b848110156102c2573360056000610be7846001610ef5565b81526020810191909152604001600020600301546001600160a01b03161415610cca576000610c17826001610ef5565b600081815260056020818152604092839020835160e0810185528154815260018201546001600160a01b0390811693820193909352600282015494810194909452600381015482166060850152600481015490911660808401529081015460a0830152600681015460ff16151560c0830152855192935091859087908110610caf57634e487b7160e01b600052603260045260246000fd5b6020908102919091010152610cc5600186610ef5565b945050505b80610cd481610f24565b915050610bcf565b805480610d2b5760405162461bcd60e51b815260206004820152601b60248201527f436f756e7465723a2064656372656d656e74206f766572666c6f77000000000060448201526064016104d4565b600019019055565b6040805160e081018252600080825260208201819052918101829052606081018290526080810182905260a0810182905260c081019190915290565b80356001600160a01b0381168114610d8657600080fd5b919050565b60008060408385031215610d9d578182fd5b610da683610d6f565b946020939093013593505050565b600080600060608486031215610dc8578081fd5b610dd184610d6f565b95602085013595506040909401359392505050565b602080825282518282018190526000919060409081850190868401855b82811015610e6d57815180518552868101516001600160a01b039081168887015286820151878701526060808301518216908701526080808301519091169086015260a0808201519086015260c09081015115159085015260e09093019290850190600101610e03565b5091979650505050505050565b60208082526024908201527f5072696365206d75737420626520657175616c20746f206c697374696e6720706040820152637269636560e01b606082015260800190565b6020808252601f908201527f5265656e7472616e637947756172643a207265656e7472616e742063616c6c00604082015260600190565b60008219821115610f0857610f08610f3f565b500190565b600082821015610f1f57610f1f610f3f565b500390565b6000600019821415610f3857610f38610f3f565b5060010190565b634e487b7160e01b600052601160045260246000fdfea26469706673582212206d9435f7db00e27ddc8ab8836d4878c1f027424d5796c577f610acd9c99b13fb64736f6c63430008040033",
  "linkReferences": {},
  "deployedLinkReferences": {}
}